:4000000000800020110000002D0700002D07000008B5044B1A6803F53F5302331A6000F0A5FB00BFFA46004010B5054C237833B9044B13B10448AFF300800123237010BD6F
:400040005881FF1F00000000682C0000084B10B51BB108490848AFF300800848036803B910BD074B002BFBD0BDE81040184700BF000000005C81FF1F682C0000C880FF1FBA
:400080000000000010B50446002102F059F9A8B11049204602F036F980B10E49204602F047F80D4901F090FF0C4901F085FE4FF07E5101F07FFE02F04DF910BD05492046A0
:4000C00002F03EF910B140F65F1010BD40F21F2010BD00BF000034430000E8440000084408B50146044801F065FEFFF7CBFF80B200F0F8FB08BD00BF0000A24208B50146D3
:40010000044801F057FEFFF7BDFF80B200F068FC08BD00BF0000BA4210B500F071FE044600F042FE204610BD10B500F069FE044600F018FE204610BD08B5A0F5BE7001F094
:40014000EFFE024B196801F03FFF08BD7481FF1F08B5B43801F0E4FE024B596801F034FF08BD00BF7481FF1F70B505460E461446114602F0E5F830B93146284602F0C2F8BA
:4001800018B1304670BD204670BD284670BD00BFF8B5FFF7C9FF284CA060284B1B681D1A2846FFF7D5FFE060A56001F049FB1CA3D3E9002301F098FB06460F46206901F0EB
:4001C0003FFB32463B4601F0DDF901F09FFD1C4A1C49FFF7C9FF606100F10040FFF78EFF6069A061E568E56101F02AFB0EA3D3E9002301F079FB06460F46284601F020FBF7
:400200000BA3D3E9002301F06FFB02460B463046394601F0B7F901F079FD2061F8BD00BF7B14AE47E1726F402AA913D044D8D03F5C8FC2F5284C6EC07481FF1FCC80FF1F23
:400240000000F0410000F0C1F8B5FFF765FF284C2062284B5B681D1A2846FFF76DFF6062256201F0EDFA1CA3D3E9002301F03CFB06460F46A06A01F0E3FA32463B4601F018
:4002800081F901F043FD1C4A1C49FFF76DFFE062FFF726FFE06A2063656A656301F0D0FA0FA3D3E9002301F01FFB06460F46284601F0C6FA0CA3D3E9002301F015FB0246B7
:4002C0000B463046394601F05DF901F01FFDA062F8BD00BFAFF300807B14AE47E1726F408D261763609DE03FB81E85EB518857C07481FF1FCC80FF1F0000F0410000F0C168
:4003000070B58CB005460C461E461A4909A802F087F83246184906A802F082F82A46174903A802F07DF822461549684602F078F8012000F087FC0021084600F0DDFC09A8AE
:4003400000F072FC0021012000F0D6FC06A800F06BFC0821002000F0CFFC03A800F064FC0821012000F0C8FC684600F05DFC0CB070BD00BF6C2C0000742C00007C2C00009A
:40038000842C000008B5194B194A1A60194A5A6000F004FB00F080FB642000F043FA0F2001F084F8142000F03DFA062001F07EF80A2000F037FA002001F078F800F0C4FC67
:4003C00000F08CFC0C4801F091F80C4801F0B6F862B60B4A0548136852688168006AFFF78FFF642000F01EFAF3E700BF7481FF1F36A7BA3A9292A03A91010000490200001A
:40040000CC80FF1FFEE700BFF0B40022174611E050F82760F3B226F0FF0608E001EB420511F812406D78A5550132013BDBB2002BF4D101371A2FEBD9F0BC7047064B1B783E
:40044000DBB203F00701054A11701B09013213704422034B1A707047CF0100496E5800407658004008B50A46002101F0D0FF08BD08B501F0C1FF08BD38B500242F4B1C801B
:40048000502202331A70172202331A80182202331A7004222A492B48FFF7EAFF02222A4B1A7008224FF040231A70032103F500731970264B1B78DBB225490B70254B1A800A
:4004C00041F25122023B1A8019250CE0224B1B7803F0010343EA440404F003044FF4F07001F03AF8013D0DB1032CEFD115B90320FFF788FF194B4FF480721A8007221A70E9
:40050000002217490A704820023108701A700222033B1A7004220A331A70124A137843F003031370013A137843F001031370013A137843F08003137038BD00BF8040004073
:40054000BC020048004100400043004008010049A146004022420040254200400440004006400040A2430040012807D8044B53F820201844017A13780B431370704700BFF3
:400580008C2C0000012808D8044B53F820201844017A137823EA0103137070478C2C0000FF22044B1A700023034A137002F6B31213707047D880FF1F4D5100400F4A13781F
:4005C00001335BB21370072B05D8DFE803F0070F0404040404040022084B1A700122084B1A70102203F6B3131A7070470822044B1A70802203F6B3131A707047D880FF1FF4
:400600004D51004038B572B6334A137843F00403137000240BE0314863001A19510001440A46098AD068FFF71DFF0134E4B2082CF1D92B494FF09040FFF7E6FE0A25294B58
:400640001D70294A03F5344355331A60274A137843F0020313701032137843F002031370234C237843F040032370A2F58632513A137843F0100313702A461E491E48FFF756
:40068000F7FE05221D491E48FFF7F2FE08221D491D48FFF7EDFE08221C491D48FFF7E8FE2A461C491C48FFF7E3FE1C4A137843F0080313701A4D61232B70FFF7DDFE812309
:4006C0002B700122174B1A70FFF7B8FE0E2221461548FFF7CDFE38BDE84600408C2C00006C000048835800404444044403500140A04300408C020048C05100409802004875
:40070000CB510040A002004812510040A802004822510040B002004840510040224300400048004004000840B043004008B501F037FE03680C2B00D1FEE7FEE708B5094B83
:400740001A681044084BC31A802B02DC054B186005E001F025FE0C2303604FF0FF32104608BD00BFDC80FF1FE081FF1F08B5104E104D16E029686B68AC68002204E051F81F
:40078000040B43F8040B0432A242F8D1E868002203E0002143F8041B04328242F9D11035013E002EE6D101F001FEFFF7EBFDFEE701000000282D000008B5104A104B1A600B
:4007C000104A136843F40073136000230AE0032B03D80D4A52F8231000E00C490C4A42F8231001332F2BF2D90A4B1A780A4B1A70074A0A4B1A60FFF705FF08BD0004FA0524
:400800000CED00E014ED00E0000000002D0700000080FF1FBC760040C080FF1F08ED00E001BE704710B5044605E0084B186800F093FEA4F50044B4F5004FF6D8034B586818
:4008400000FB04F000F088FE10BD00BFE080FF1F08B5034B1B7A00FB03F000F07DFE08BDE080FF1F70B504460E46074B1D681F2802D90020FFF7D4FF04F01F04103455F880
:40088000240045F8246070BD08ED00E038B504460D46072902D90020FFF7C2FF1F2C02D90020FFF7BDFF04F01F0000F1604000F564406D01EDB2057038BD00BF024A1378A3
:4008C00043F08003137070477B640040014B1880704700BF14680040014B1880704700BF94680040014B1880704700BF54680040014B1880704700BF74680040014B18709D
:40090000704700BF8B640040014B1878704700BF6B640040014B188880B27047B468004008B501E0FFF7F6FFFFF7EEFF10F0100FF8D108BD10B5174A137803F0C00343F0CD
:40094000010313701F32137843F001031370124C237843F00103237044F61F60FFF7B6FF44F61F60FFF7B8FF4FF4B860FFF7BAFF44F6D410FFF7BCFF0020FFF7BFFF00F030
:40098000F3FD237843F01003237000F0F1FDFFF7C7FF10BD7B6400409B64004008B5054B1B7823B9FFF7C6FF0122024B1A70FFF785FF08BDB881FF1F024A137843F08003BA
:4009C000137070477D640040014B1880704700BF18680040014B1880704700BF98680040014B1880704700BF58680040014B1880704700BF78680040014B1870704700BFCA
:400A00008D640040014B1878704700BF6D640040014B188880B27047B868004008B501E0FFF7F6FFFFF7EEFF10F0100FF8D108BD10B5174A137803F0C00343F001031370B3
:400A40001F32137843F001031370124C237843F00103237044F61F60FFF7B6FF44F61F60FFF7B8FF4FF4B860FFF7BAFF44F6D410FFF7BCFF0020FFF7BFFF00F075FD2378A9
:400A800043F01003237000F073FDFFF7C7FF10BD7D6400409D64004008B5054B1B7823B9FFF7C6FF0122024B1A70FFF785FF08BDB981FF1F10B50B4C237803F09F0323706B
:400AC000237803F0F00323702378184340F0100020700120FFF7BCFE237803F0EF03237010BD00BF2051004038B505460E4C237843F020032370237803F0BF0323700020E2
:400B0000FFF7A6FE237803F0F003237023781D4345F0100525700120FFF79AFE237803F0EF03237038BD00BF2051004070B5354B1A7802F08002D2B21A7033490A7802F05D
:400B4000F00242F00F020A7001310A7802F0F0020A7001310A7802F0F0020A701A7802F0DF021A701A7842F040021A704FF4CA760020FFF76DFE234D2B7843F010032B702B
:400B80000120FFF765FE214B1C78E4B22B7803F0EF032B700020FFF75BFE04F00804E4B22B7843F010032B700120FFF751FE2B7803F0EF032B7014B90A20FFF749FE013E7D
:400BC0000CB1002ED4D10F4A137803F0BF031370137803F08003DBB213700232137803F0F00313700132137803F0F00343F00F0313700132137803F0F00343F00F03137038
:400C000070BD00BF20510040225100402151004010B50446FFF78AFF2009FFF765FF04F00F00FFF761FF10BD38B505460078012404E0FFF7EDFF285D0134E4B20028F8D19F
:400C400038BD00BF10B50446FFF770FF2009FFF731FF04F00F00FFF72DFF10BD08B52820FFF7E0FD0320FFF725FF0520FFF7DAFD0320FFF71FFF0F20FFF7D4FD0320FFF7BE
:400C800019FF0120FFF7CEFD0220FFF713FF0520FFF7C8FD0620FFF7D5FF0E20FFF7D2FF2C20FFF7CFFF0820FFF7CCFF0120FFF7C9FF0C20FFF7C6FF0320FFF7C3FF05208C
:400CC000FFF7B0FD08BD00BF08B50C20FFF7BAFF0122014B1A7008BDBA81FF1F08B5054B5B7823B9FFF7BAFF0122024B5A70FFF7EBFF08BDBA81FF1F08B5032819D8DFE8DB
:400D000000F002070D1381F08000FFF79BFF08BDA1F14000C0B2FFF795FF08BDA1F16C00C0B2FFF78FFF08BDA1F12C00C0B2FFF789FF08BD08B500F071F800F07BF908BD56
:400D400008B500F0D9F908BD08B5054B1B7823B9FFF7F0FF0122024B1A70FFF7F1FF08BDBC81FF1F08B50F4A137803F0F10343F00C0313700232137803F0F10343F00C0399
:400D80001370033A137803F0F10313700232137803F0F103137000F045F808B1FFF70EFC08BD00BF2150004008B5144A137803F0F10343F00C031370023A137803F0F1033A
:400DC00043F00C0313700332137803F0F1031370023A137803F0F103137000F023F810B9FFF7ECFB08BD00F01DF8B0F1FF3F03D1FFF7E4FBFFF7E2FB08BD00BF22500040C7
:400E000008B500F0E5F9002000F0EAF900F000FA0122014B5A7008BDBC81FF1F08B5FFF7BFFB08BD014B93F900007047D880FF1F10B59DF80840012C51D1013809282ED859
:400E4000DFE800F0052D2D052D2D0F192D230F2B03D92548007840B222E02448007840B21EE00F2B03D92248007840B218E02148007840B214E00F2B03D91F48007840B232
:400E80000EE01E48007840B20AE00F2B03D91C48007840B204E01B48007840B200E0002001EB401101FB02F1C90B8AB20D2B0BD8C3F10E0289B211418AB2611E124800EB4D
:400EC000810101338B7005E0631E0F4901EB83030F219970013C0C4B23F8242010BD0020FFF79EFC10BD00BF180100491C010049190100491D0100491A0100491E0100497E
:400F00001B0100491F010049C081FF1FF8B5074600F02AFB06460D4D2B7843F003032B700B4C237843F0030323700A4B1F700320FFF78EFC2B7803F0FC032B70237803F055
:400F4000FC032370304600F013FBF8BDF8460040F946004092580040F8B50022304B1A7101285CD130222F4B1A70062202331A70082201331A70002401331C7001331C709B
:400F80001F2201331A7002331C7001331C7001331C7001250A331D70142203F527631A70052701331F70162201331A7001331C70442203331A70482201331A7001331D700B
:400FC000022602331E70222201331A70282201331A70EB2201331A705220FFF797FF5822114B1A7001331C7005331F7001331E7001331C7001331C70204600F043F940F246
:4010000033320A4B1A602946304600F05FF929460A2000F0DFF906491D20FFF723FCF8BDC081FF1F004E004094580040D081FF1F61120000F0B583B0284D01272F70284E13
:4010400000247471102000F02FF9102000F0B0F907211D20FFF71AFC0422224B1A7001331C7007331C70204A137843F0180313701E4B1C7003F2F5231C7001331C700A2202
:40108000A3F209331A7001331C7002331C70122205331A70132201331A7004331C701422A3F68C231A7000970C234FF4004248F66B510220FFF7BCFE2B78013B06EB830333
:4010C0009A780B4B1A702B78013B36F82320094B1A802878FFF740FF03B0F0BDF080FF1FC081FF1F96580040075B0040935800400E4E00400C4E004070B500F035FA0646DD
:401100002A4B1B782A4B1A7842F001021A701A7842F010021A7010331A7842F001021A701A7842F010021A70224D2B7843F002032B70214C237843F0020323701F4A1378E1
:4011400043F0030313700320FFF782FB2B7803F0FD032B70237803F0FD032370184A137843F0060313707A22164B1A70164A137843F0010313701032137843F0010313706C
:401180000F3A137843F0010313701032137843F0010313704FF000530C4A1360A2F5C0721360304600F0E4F970BD00BFF080FF1FAA430040F8460040F94600409158004073
:4011C0007758004082580040A143004080E200E0024A137843F0010313707047004E0040094B1B7913F0FF0F03D0074B5B79DBB203E0064B1B7803F00103012B01D0002828
:40120000EED01846704700BFC081FF1F014E00400E4B1B7803F00303012B03D80C4B188880B209E00A4A12780A49087842EA0020032B01D1084B1B78084B1B7913F0FF0F55
:4012400002D00022054B5A7100B27047144E0040104E0040114E0040124E0040C081FF1F704700BF10B5002404E02046FFF78AF90134E4B2012CF8D9FF22014B1A7010BD69
:40128000F180FF1F10B50446FFF7ECFF2046FFF76BF9014B1C7010BDF180FF1F014B188880B2704780400040034B1A7800F0F80010431870704700BF82400040024B1878EE
:4012C00000F00700704700BF8240004070B505460E46FFF7F3FF0446FFF7E0FFA84256D02B4B1B7803F0010294B900B185B938B9284B1D80284A137803F0BF03137070BD06
:40130000254A137843F040031370224B1D8070BD22B3002321490B7001240F310C7004310B700C390B7803F07F030B701A4B1B7813F0080F00D08DB9194B18800721013BD5
:401340001970164B1B7813F0010FFAD110490B7803F0FE030B700021104B19700C4B1B7813F0010F0DD00E4B1D800EB1032200E001220A4B1A70094B1B7813F0010FFAD167
:4013800070BD044B1D8002490B7813430B7070BDA243004080400040824000400140004002400040014B188880B2704700410040034B1A7800F0F80010431870704700BFAF
:4013C00002410040024B187800F00700704700BF0241004070B505460E46FFF7F3FF0446FFF7E0FFA84256D02B4B1B7803F0010294B900B185B938B9284B1D80284A137889
:4014000003F0BF03137070BD254A137843F040031370224B1D8070BD22B3002321490B70012413310C7004390B7008390B7803F07F030B701A4B1B7813F0080F00D08DB9C7
:40144000194B18800721013B1970164B1B7813F0010FFAD110490B7803F0FE030B700021104B19700C4B1B7813F0010F0DD00E4B1D800EB1032200E001220A4B1A70094B77
:401480001B7813F0010FFAD170BD044B1D8002490B7813430B7070BDA143004000410040024100400140004002400040014B1870704700BF7C640040014B1B6858647047FF
:4014C00008ED00E04001C0B2014B1870704700BF01E400E00222014B1A60704700E100E00222014B1A60704780E100E010B50446FFF7F6FF2046FFF7DFFF0720FFF7E2FFDF
:40150000FFF7E8FF10BD00BF014B1B681864704708ED00E04001C0B2014B1870704700BF00E400E00122014B1A60704700E100E00122014B1A60704780E100E010B5044659
:40154000FFF7F6FF2046FFF7DFFF0720FFF7E2FFFFF7E8FF10BD00BF0230800803D000BF01380046FCD17047EFF3108072B6704780F31088704700BF81F0004102E000BF6B
:4015800083F0004330B54FEA41044FEA430594EA050F08BF90EA020F1FBF54EA000C55EA020C7FEA645C7FEA655C00F0E2804FEA5454D4EB5555B8BF6D420CDD2C4480EA60
:4015C000020281EA030382EA000083EA010180EA020281EA0303362D88BF30BD11F0004F4FEA01314FF4801C4CEA113102D0404261EB410113F0004F4FEA03334CEA1333F4
:4016000002D0524263EB430394EA050F00F0A780A4F10104D5F1200E0DDB02FA0EFC22FA05F2801841F1000103FA0EF2801843FA05F359410EE0A5F120050EF1200E012A48
:4016400003FA0EFC28BF4CF0020C43FA05F3C01851EBE37101F0004507D54FF0000EDCF1000C7EEB00006EEB0101B1F5801F1BD3B1F5001F0CD349085FEA30004FEA3C0C77
:4016800004F101044FEA445212F5800F80F09A80BCF1004F08BF5FEA500C50F1000041EB045141EA050130BD5FEA4C0C404141EB010111F4801FA4F10104E9D191F0000F21
:4016C00004BF01460020B1FA81F308BF2033A3F10B03B3F120020CDA0C3208DD02F1140CC2F10C0201FA0CF021FA02F10CE002F11402D8BFC2F1200C01FA02F120FA0CFCC2
:40170000DCBF41EA0C019040E41AA2BF01EB0451294330BD6FEA04041F3C1CDA0C340EDC04F11404C4F1200220FA04F001FA02F340EA030021FA04F345EA030130BDC4F13B
:401740000C04C4F1200220FA02F001FA04F340EA0300294630BD21FA04F0294630BD94F0000F83F4801306BF81F480110134013D4EE77FEA645C18BF7FEA655C29D094EADF
:40178000050F08BF90EA020F05D054EA000C04BF1946104630BD91EA030F1EBF0021002030BD5FEA545C05D14000494128BF41F0004130BD14F580043CBF01F5801130BDCC
:4017C00001F0004545F0FE4141F470014FF0000030BD7FEA645C1ABF194610467FEA655C1CBF0B46024650EA013406BF52EA033591EA030F41F4002130BD00BF90F0000F52
:4018000004BF0021704730B54FF4806404F132044FF000054FF0000150E700BF90F0000F04BF0021704730B54FF4806404F1320410F0004548BF40424FF000013EE700BF09
:4018400042004FEAE2014FEA31014FEA02701FBF12F07F4393F07F4F81F06051704792F0000F14BF93F07F4F704730B54FF4607401F0004521F0004120E700BF50EA010235
:4018800008BF704730B54FF000050AE050EA010208BF704730B511F0004502D5404261EB41014FF4806404F132045FEA915C3FF4DCAE4FF003025FEADC0C18BF03325FEABB
:4018C000DC0C18BF033202EBDC02C2F1200300FA03FC20FA02F001FA03FE40EA0E0021FA02F11444C1E600BF70B54FF0FF0C4CF4E06C1CEA11541DBF1CEA135594EA0C0F05
:4019000095EA0C0F00F0DEF82C4481EA030621EA4C5123EA4C5350EA013518BF52EA033541F4801143F4801338D0A0FB02CE4FF00005E1FB02E506F00042E0FB03E54FF010
:401940000006E1FB03569CF0000F18BF4EF0010EA4F1FF04B6F5007F64F5407404D25FEA4E0E6D4146EB060642EAC62141EA55514FEAC52040EA5E504FEACE2EB4F1FD0C7B
:4019800088BFBCF5E06F1ED8BEF1004F08BF5FEA500E50F1000041EB045170BD06F0004646EA010140EA020081EA0301B4EB5C04C2BFD4EB0C0541EA045170BD41F48011C3
:4019C0004FF0000E013C00F3AB8014F1360FDEBF002001F0004170BDC4F10004203C35DA0C341BDC04F11404C4F1200500FA05F320FA04F001FA05F240EA020001F0004246
:401A000021F0004110EBD37021FA04F642EB06015EEA430E08BF20EAD37070BDC4F10C04C4F1200500FA04F320FA05F001FA04F240EA020001F0004110EBD37041F1000194
:401A40005EEA430E08BF20EAD37070BDC4F1200500FA05F24EEA020E20FA04F301FA05F243EA020321FA04F001F0004121FA04F220EA020000EBD3705EEA430E08BF20EA4E
:401A8000D37070BD94F0000F0FD101F00046400041EB010111F4801F08BF013CF7D041EA060195F0000F18BF704703F00046520043EB030313F4801F08BF013DF7D043EA7D
:401AC0000603704794EA0C0F0CEA135518BF95EA0C0F0CD050EA410618BF52EA4306D1D181EA030101F000414FF0000070BD50EA410606BF1046194652EA430619D094EA6F
:401B00000C0F02D150EA013613D195EA0C0F05D152EA03361CBF104619460AD181EA030101F0004141F0FE4141F470014FF0000070BD41F0FE4141F4780170BD70B54FF040
:401B4000FF0C4CF4E06C1CEA11541DBF1CEA135594EA0C0F95EA0C0F00F0A7F8A4EB050481EA030E52EA03354FEA013100F088804FEA03334FF0805545EA131343EA1263F2
:401B80004FEA022245EA111545EA10654FEA00260EF000419D4208BF964244F1FD0404F5407402D25B084FEA3202B61A65EB03055B084FEA32024FF480104FF4002CB6EB51
:401BC000020E75EB030E22BFB61A754640EA0C005B084FEA3202B6EB020E75EB030E22BFB61A754640EA5C005B084FEA3202B6EB020E75EB030E22BFB61A754640EA9C00BA
:401C00005B084FEA3202B6EB020E75EB030E22BFB61A754640EADC0055EA060E18D04FEA051545EA16754FEA06164FEAC30343EA52734FEAC2025FEA1C1CC0D111F4801FFF
:401C40000BD141EA00014FF000004FF0004CB6E711F4801F04BF01430020B4F1FD0C88BFBCF5E06F3FF6AFAEB5EB030C04BFB6EB020C5FEA500C50F1000041EB045170BDEE
:401C80000EF0004E4EEA113114EB5C04C2BFD4EB0C0541EA045170BD41F480114FF0000E013C90E645EA060E8DE60CEA135594EA0C0F08BF95EA0C0F3FF43BAF94EA0C0F77
:401CC0000AD150EA01347FF434AF95EA0C0F7FF425AF104619462CE795EA0C0F06D152EA03353FF4FDAE1046194622E750EA410618BF52EA43067FF4C5AE50EA41047FF465
:401D00000DAF52EA43057FF4EBAE12E74FEA4102B2F1E04324BFB3F5001CDCF1FE5C0DD901F0004C4FEAC0024CEA5070B2F1004F40EB830008BF20F00100704711F0804F3B
:401D400021D113F13872BCBF01F00040704741F480114FEA5252C2F11802C2F1200C10FA0CF320FA02F018BF40F001004FEAC1234FEAD32303FA0CFC40EA0C0023FA02F35B
:401D80004FEA4303CCE77FEA625307D150EA01331EBF4FF0FE4040F44000704701F0004040F0FE4040F40000704700BF80F0004002E000BF81F0004142001FBF5FEA41030F
:401DC00092EA030F7FEA226C7FEA236C6AD04FEA1262D2EB1363C1BFD218414048404140B8BF5B42192B88BF704710F0004F40F4000020F07F4018BF404211F0004F41F4D2
:401E0000000121F07F4118BF494292EA030F3FD0A2F1010241FA03FC10EB0C00C3F1200301FA03F100F0004302D5494260EB4000B0F5000F13D3B0F1807F06D340084FEA80
:401E4000310102F10102FE2A51D2B1F1004F40EBC25008BF20F0010040EA03007047490040EB000010F4000FA2F10102EDD1B0FA80FCACF1080CB2EB0C0200FA0CF0AABF49
:401E800000EBC25052421843BCBFD0401843704792F0000F81F4000106BF80F400000132013BB5E74FEA41037FEA226C18BF7FEA236C21D092EA030F04D092F0000F08BF60
:401EC0000846704790EA010F1CBF0020704712F07F4F04D1400028BF40F00040704712F100723CBF00F50000704700F0004343F0FE4040F4000070477FEA226216BF0846F3
:401F00007FEA23630146420206BF5FEA412390EA010F40F4800070474FF0000304E000BF10F0004348BF40425FEA000C08BF704743F0964301464FF000001CE050EA010271
:401F400008BF70474FF000030AE000BF50EA010208BF704711F0004302D5404261EB41015FEA010C02BF84460146002043F0B64308BFA3F18053A3F50003BCFA8CF2083A5F
:401F8000A3EBC25310DB01FA02FC634400FA02FCC2F12002BCF1004F20FA02F243EB020008BF20F00100704702F1200201FA02FCC2F1200250EA4C0021FA02F243EB0200B5
:401FC00008BF20EADC7070474FF0FF0C1CEAD0521EBF1CEAD15392EA0C0F93EA0C0F6FD01A4480EA010C400218BF5FEA41211ED04FF0006343EA501043EA5111A0FB013114
:402000000CF00040B1F5000F3EBF490041EAD3715B0040EA010062F17F02FD2A1DD8B3F1004F40EBC25008BF20F00100704790F0000F0CF0004C08BF49024CEA502040EA0C
:4020400051207F3AC2BFD2F1FF0340EAC250704740F400004FF00003013A5DDC12F1190FDCBF00F000407047C2F10002410021FA02F1C2F1200200FA02FC5FEA310040F1EA
:40208000000053EA4C0308BF20EADC70704792F0000F00F0004C02BF400010F4000F013AF9D040EA0C0093F0000F01F0004C02BF490011F4000F013BF9D041EA0C018FE705
:4020C0000CEAD15392EA0C0F18BF93EA0C0F0AD030F0004C18BF31F0004CD8D180EA010000F00040704790F0000F17BF90F0004F084691F0000F91F0004F14D092EA0C0FDE
:4021000001D142020FD193EA0C0F03D14B0218BF084608D180EA010000F0004040F0FE4040F40000704740F0FE4040F4400070474FF0FF0C1CEAD0521EBF1CEAD15392EA70
:402140000C0F93EA0C0F69D0A2EB030280EA010C49024FEA402037D04FF0805343EA111143EA10130CF000408B4238BF5B0042F17D024FF4000C8B4224BF5B1A40EA0C0017
:40218000B3EB510F24BFA3EB510340EA5C00B3EB910F24BFA3EB910340EA9C00B3EBD10F24BFA3EBD10340EADC001B0118BF5FEA1C1CE0D1FD2A3FF650AF8B4240EBC2507A
:4021C00008BF20F0010070470CF0004C4CEA50207F32C2BFD2F1FF0340EAC250704740F400004FF00003013A37E792F0000F00F0004C02BF400010F4000F013AF9D040EA9A
:402200000C0093F0000F01F0004C02BF490011F4000F013BF9D041EA0C0195E70CEAD15392EA0C0F08D142027FF47DAF93EA0C0F7FF470AF084676E793EA0C0F04D14B02F0
:402240003FF44CAF08466EE730F0004C18BF31F0004CCAD130F000427FF45CAF31F000437FF43CAF5FE700BF4FF0FF3C06E000BF4FF0010C02E000BF4FF0010C4DF804CD2D
:402280004FEA40024FEA41037FEA226C18BF7FEA236C11D001B052EA530C18BF90EA010F58BFB2EB030088BFC81738BF6FEAE17018BF40F0010070477FEA226C02D15FEA82
:4022C000402C05D17FEA236CE4D15FEA412CE1D05DF8040B704700BF844608466146FFE70FB5FFF7C9FF002848BF10F1000F0FBD4DF808EDFFF7F4FF0CBF012000205DF8F8
:4023000008FB00BF4DF808EDFFF7EAFF34BF012000205DF808FB00BF4DF808EDFFF7E0FF94BF012000205DF808FB00BF4DF808EDFFF7D2FF94BF012000205DF808FB00BF11
:402340004DF808EDFFF7C8FF34BF012000205DF808FB00BF4FEA4002B2F1FE4F0FD34FF09E03B3EB12620DD94FEA002343F0004310F0004F23FA02F018BF404270474FF077
:402380000000704712F1610F01D1420205D110F0004008BF6FF0004070474FF000007047014B1868704700BF5481FF1F0E4B70B51E460E4C0025E41AA410A54204D056F863
:4023C000253098470135F8E700F09CFC084B094C1E46E41AA4100025A54204D056F8253098470135F8E770BD102D0000102D0000102D0000182D000010B5431E0A44914267
:4024000004D011F8014B03F8014FF8E710BD03460244934202D003F8011BFAE7704700000EB400B54FF402719CB0ADF814106FF00041049107914FF6FF711DAB02900690E3
:40244000084853F8042BADF81610006802A9019300F064F8029B00221A701CB05DF804EB03B070475481FF1F2DE9F0478E6882469E420C46914698463ED88A8912F4906FFE
:402480003AD02568096902236F1A656905EB450595FBF3F57B1C43449D4238BF1D4653050FD5294600F040FB064698B13A462169FFF7A2FFA38923F4906343F08003A38172
:4024C00013E02A4600F08EFB064670B92169504600F0DEFA0C23CAF80030A3894FF0FF3043F04003A381BDE8F08726613E44266046466561ED1BA560464528BF46464946B7
:402500003246206800F0A8FAA36800209B1BA36023681E442660BDE8F08700002DE9F04F9DB003938B8980461C060D4616460DD50B695BB9402100F0F7FA2860286118B925
:402540000C23C8F80030CDE040236B610023099320238DF82930DFF89CB130238DF82A3037463C4614F8013B1BB9B7EB060910D003E0252BF9D02746F3E74B4632462946C3
:402580004046FFF771FF013000F0A780099B4B4409933B78002B00F0A08000234FF0FF3204930793059206938DF853301A930126052221784E4800F041FA671C049B38B1CE
:4025C0004B4A3C46801A06FA00F018430490EFE7D90644BF20228DF853201A0744BF2B228DF8532022782A2A03D0079A00210A200BE0039A111D12680391002A10DA5242D7
:4026000043F00200079204900BE027463B780134303B092B03D800FB02320121F5E701B107923B782E2B1ED17B782A2B0AD1039B02371A1D1B680392002BB8BF4FF0FF33AF
:40264000059310E0002319460593781C0A2407463A780130303A092A03D804FB01210123F5E703B1059103223978224800F0E6F940B14023CBEB000003FA00F0049B013706
:4026800018430490397806221B487E1C8DF8281000F0D4F988B1194B33B9039B073323F007030833039314E003AB00932A46144B04A94046AFF3008007E003AB00932A469B
:4026C0000F4B04A9404600F093F8B0F1FF3F824603D0099B5344099342E7AB895B0601D4099801E04FF0FF301DB0BDE8F08F00BFD02C0000D62C0000DA2C0000000000004A
:40270000692400002DE9F04791461F460A698B6806469342B8BF1346C9F8003091F843200C46DDF8208012B10133C9F800302368990642BFD9F800300233C9F800302568C1
:4027400015F0060510D104F1190A07E00123524639463046C04701301AD00135E368D9F800209B1A9D42F1DB94F843302268003318BF012392060FD5E118302081F843008C
:402780005A1C94F845102244023382F8431003E04FF0FF30BDE8F08704F1430239463046C0470130F4D02268D9F80050E36802F00602042A08BF5D1B2269A3680CBF25EAF5
:4027C000E57500259342C4BF9B1AED184FF000091A344D4509D00123224639463046C0470130D5D009F10109F3E70020BDE8F0872DE9F04317460A7E85B06E2A98460646AA
:402800000C460C9B01F1430E00F0AE8011D8632A22D009D8002A00F0BB80582A40F0CA8081F84520834955E0642A1ED0692A1CD0C0E0732A00F0B08009D86F2A2ED0702A5B
:4028400040F0B8800A6842F020020A603EE0752A24D0782A3AD0ADE01A6801F14205111D1960136884F84230A8E021681A6811F0800F02D0111D196008E011F0400F02F144
:402880000401196002D0B2F9003000E01368002B3CDA2D225B4284F8432037E021681A6811F0800F02D0111D196007E011F0400F02F10401196001D0138800E01368227E4C
:4028C0005C496F2A14BF0A2208221BE078225A4984F845202268186812F0800F00F104051D6003D1550601D5038800E00368D00744BF42F0200222601BB9226822F0200229
:4029000022601022002084F8430001E049490A226568002DA56008DB206820F0040020602BB9002D7DD175460CE0002B79D07546B3FBF2F002FB1033CB5C05F8013D0346B7
:402940000028F5D1082A0BD12368DA0708D5236962689A42DEBF302305F8013C05F1FF35C5EB0E0323612EE008681A6810F0800F496903D0101D1860136808E010F0400FDC
:4029800002F104001860136801D0198000E0196000232361754616E01A68111D1960156800216268284600F049F808B1401B6060636804E004F1420584F84220012323619D
:4029C000002384F84330CDF800803B4603AA21463046FFF797FE013002D14FF0FF3026E023692A4639463046C0470130F5D023689B0710D5002504F1190907E001234A469B
:402A000039463046C0470130E7D00135E368039A9B1A9D42F2DBE068039B9842B8BF184605E00B7804F1420584F842308AE705B0BDE8F083E12C0000F22C000010B5C9B263
:402A400002449042034605D01C7801308C42F8D1184610BD002010BD884210B501EB020301D8421E0BE09842FBD28118D21AD34204D013F8014D01F8014DF8E710BD9942CC
:402A800004D011F8014B02F8014FF8E710BD000038B50546002944D051F8043C0C1F002BB8BFE41800F0D4F81E4A1368114613B96360146030E0A3420DD92268A018834255
:402AC00001BF18685B681218226063600C6023E0A24203D813465A68002AF9D118681918A1420BD12168014458188242196013D110685268014419605A600DE002D90C23B7
:402B00002B6009E021686018824201BF106852680918216062605C602846BDE8384000F098B838BDCC81FF1F70B5CD1C25F0030508350C2D38BF0C25002D064601DBA94216
:402B400002D90C23336046E000F082F8234B1C681A462146A1B10B685B1B0ED40B2B03D90B60CC18CD501EE08C420BBF63684B681360636018BF0C4615E00C464968E9E799
:402B8000174C23681BB9304600F052F820602946304600F04DF8431C18D0C41C24F00304A0420DD12560304600F053F804F10B00231D20F00700C31A0ED05A42E25070BDC4
:402BC000211A304600F034F80130EBD10C233360304600F03EF8002070BD00BFCC81FF1FC881FF1FF8B5074615460E4621B91146BDE8F840FFF798BF1AB9FFF749FF28465C
:402C0000F8BD00F027F885420ED929463846FFF78BFF044650B131462A46FFF7EDFB31463846FFF735FF01E03046F8BD2046F8BD38B5064C0023054608462360FDF77EFD72
:402C4000431C02D1236803B12B6038BDD881FF1F7047704751F8040C0028BEBF091851F8043CC01804387047000000005872713D256400005972713D256400005870733D90
:402C8000256400005970733D25640000035B00402443004040000000005100401000305100401000505100402000F0510040100000000140001000140140000800400140D1
:402CC000000A004C014000020050014020004300232D302B2000686C4C0065666745464700303132333435363738394142434445460030313233343536373839616263641F
:402D000065660000F8B500BFF8BC08BC9E4670474D000000B9070000F8B500BFF8BC08BC9E46704729000000382D0000C880FF1F900000008800000000000000D0070000DA
:402D4000D00700000000A040FF000000E081FF1F0000E02EC05D00001800000000366E0101FF00000000000000000000000000000000000000000000000000000000000036
:402D800000000000CE2C0000000000000000000000000000000000000000000000000000000000000000000000000000000000000000000000000000000000000000000019
:402DC00000000000F480FF1F000000000000000000000000000000000000000000000000000000000000000000000000000000000000000000000000000000000000000041
:402E00000000000000000000000000000000000000000000000000000000000000000000000000000000000000000000000000000000000000000000000000000000000092
:402E40000000000000000000000000000000000000000000000000000000000000000000000000000000000000000000000000000000000000000000000000000000000052
:402E80000000000000000000000000000000000000000000000000000000000000000000000000000000000000000000000000000000000000000000000000000000000012
:402EC00000000000000000000000000000000000000000000000000000000000000000000000000000000000000000000000000000000000000000000000000000000000D2
:020000040003F7
:0200000480007A
:40000000025200400264004001030140020501400107014002090140470A0140270B0140480C0140250D014001150140041A0140031B0140034001400341014006420140B0
:4000400001430140024401400145014003460140024701400248014001490140024C0140054D014003500140015101406008610C8B0F8D0FEE04E608EA80EA80B108EA8098
:400080004045410149FF4AFF4BFF4DA04F0450185A045D015F01604062C06440654066C068C06AC06CC06EC083088703930494049D029E09A304A607AA08B004B101B20253
:4000C000B302B408B504B601B708BC02BD88BF10C015C104C5D0C610C724C83AC9FFCAFFCBFFCDAFCE0FCF04D018D280D407D804D904DA04DB04DC11DD11DF05E040E2C009
:40010000E440E540E6C0E8C0EAC0ECC0EEC00D800E1016281D501E50258027692E0237413C023E0842024301458248024C024E024F015502562A5E405F2974017E028540C1
:4001400099089D10A002B102C2A0C460CA80CC90CEC0D099D218D6F0DE10EA804053410249FF4AFF4BFF4DA04F0450185A045B045D015F01604062C06440654066C068C084
:400180006AC06CC06EC089028D089201970C9A029B039E0EA604AA08B008B104B204B301B402B508B601B702BC80BDA0BE10C013C102C5D1C620C704C81BC9FFCAFFCBFFE7
:4001C000CDAFCE0FCF04D018D280D407D804D904DA04DB04DC11DD11DF05E040E2C0E440E540E6C0E8C0EAC0ECC0EEC009200A411028190A1A051B4020522210302838505F
:4002000041204201430445204704482149814F805008512059815A246C026D106F04724079109D10A910C20BC406CC06CE0CD06ED210D60FDE04EC1038803E4058045F01E9
:4002400018028C01EC1033203440CC309C40AB20EE20530457808704B040D460E610B3807C08DE019C0845089C08D0019C08A5082510C820B5109C08A5088C089C08B5081B
:40028000E002EC0800020C020E02000F0C00000C00000C00000C00000008000000000000000B0B0000000000007F7F00000000000900000F0F000000000000000A001801A3
:4002C00000000000000000000000000000000000000000000000000000000000000000000000000000000000000000000000000000000000000000000000000000000000FE
:4003000000000000000000000000000000000000000000000000000000000000000000000000000000000000000000000000000000000000000000000000000000000000BD
:40034000000000000000000000000000000000000000000000000000000000000000000000000000000000000000000000000000000000000000000000000000000000007D
:40038000000000000000000000000000000000000000000000000000000000000000000000000000000000000000000000000000000000000000000000000000000000003D
:0200000490006A
:0400000000004005B7
:0200000490105A
:04000000BC90ACAF55
:0200000490303A
:020000007FA7D8
:0200000490402A
:4000000000000000000000000000000000000000000000000000000000000000000000000000000000000000000000000000000000000000000000000000000000000000C0
:400040000000000000000000000000000000000000000000000000000000000000000000000000000000000000000000000000000000000000000000000000000000000080
:400080000000000000000000000000000000000000000000000000000000000000000000000000000000000000000000000000000000000000000000000000000000000040
:4000C0000000000000000000000000000000000000000000000000000000000000000000000000000000000000000000000000000000000000000000000000000000000000
:0200000490501A
:0C00000000012E12306900012E24B01007
:00000001FF