:400000000080002011000000E5040000E504000008B5044B1A6803F53F5302331A6000F07FFA00BFFA46004010B5054C237833B9044B13B10448AFF300800123237010BD2C
:400040004881FF1F00000000B0230000084B10B51BB108490848AFF300800848036803B910BD074B002BFBD0BDE81040184700BF000000004C81FF1FB0230000C880FF1F5C
:400080000000000010B50021044601F0F3F9A8B10C49204601F0D0F980B10A49204601F0E1F8094901F02AF8084900F01FFF4FF07E5100F019FF01F0E7F910BD4FF4B860DE
:4000C00010BD00BF000034430000E8440000084408B50146044800F007FFFFF7D3FFBDE8084080B200F058BB0000BA4208B5FF2000F03EFC012000F06FFA00F0FBFB00F003
:4001000005FC074B1860002000F032FC012000F063FA00F0DDFC00F0E7FC024B186008BDCC80FF1F6481FF1F70B500F0D1FC00F0DBFC114B06461D68104B4FF07C511868F8
:4001400000F0D2FE294600F0CFFE29460446304600F0CAFE4FF07C510546204600F0CEFF0146284600F0C0FE214601F07BF8044900F0C4FF70BD00BF6481FF1FCC80FF1FAB
:400180000000904070B500F0B5FB00F0BFFB104B06461D680F4B1049186800F0A5FE294600F0A2FE29460446304600F09DFE4FF07C510546204600F0A1FF0146284600F063
:4001C00093FE214601F04EF8044900F097FF70BD6481FF1FCC80FF1F3333333F9A99894038B500F077FA00F0C9FA00F075FB00F061FC642000F0F0F9FFF778FF62B60020DF
:40020000FFF766FF42F2107000F0E6F91048FFF75FFF42F2107000F0DFF9FFF785FF05460A2000F0D9F9FFF7ADFF0446284600F003FE02460B46074801F080F9204600F014
:40024000FBFD02460B46034801F078F9D7E700BF00007041B42300002DE9F04172B67F4A7F4D1378002443F004031370062606FB045300219A881868013401F057F9092CD9
:40028000F5D1784B784A794D92E80300186099807748090C9971002450F8041F04F1105303F1300221F0FF063133C9B20B4452005B000232934206D012F8027C12F801ECE5
:4002C00007F806E0F5E7A8420C44E5D1694A6A4D13786A4F43F002031370137C192643F0020313742B78A2F5863243F040032B70413A1378002443F010031370604A614B0B
:4003000007CA03C31A80604A1068C3F803001279DA715E4A5E4B03CB1060516003CB51635C4910630A7842F008020A705A4A61211170A2F5F062172111801821917093E8B6
:4003400003008032554B82E8030002221A70032108224FF040231A7083F80012504B51491B78DBB20B70504B1A8041F2512223F8022C3B784FF4F07003F0010343EA440450
:4003800000F0E6FB013E04F0030465D0032CF0D1464B4FF480721A80454907221A70482000220A7088701A70022203F8032C0422DA71404A404F1378DFF8248143F00103D0
:4003C000137012F8013C0A2043F0030302F8013C2B78812243F080032B702F4B1A7003F5F723012204331A70344B354A1B783C78DBB298F80060E4B203F007011B09117010
:40040000F6B2537044F003033B7046F0030388F800302C4B0C221A702B4A4023137093701372937282F81F32284B294920221A7080230B70CA70274A137000F0E3F8264B65
:4004400088F8006044223C70244C1A7095E80F0007C42380BDE8F081FEE700BFE8460040B9230000205200405C0200485C000048FCFFFF4703500140A043004025420040F7
:4004800064020048C051004070020048125100407802004822430040004800400043004008010049A1460040224200400440004006400040A2430040F8460040CF0100498B
:4004C0006E5800404D51004001590040235B0040285B0040585B004076580040B0430040F946004008B500F0F5FF03680C2B00D1FEE7FEE7084908B50B68084A1844821AA1
:40050000802A01DC086005E000F0E4FF0C2303604FF0FF33184608BDD080FF1F9081FF1F80B51148114B0025C0B1A3F1100192C922460439161BB74204D051F8046F42F838
:40054000046BF7E7114653F8046C8C1AA64202D041F8045BF9E701381033E5E700F0C0FFFFF73EFEFEE700BF01000000D4240000104A114B10B41A60104A114C13681148FF
:4005800043F4007313600023032B98BF54F823204FEA830188BF0C4A0133302B4250F3D10A4B1A780A4B1A700A4B064A10BC1A60FFF752BE0004FA050CED00E014ED00E034
:4005C000000000000080FF1FE5040000BC760040C080FF1F08ED00E038B50446084DB4F5004F05D9286800F0B3FAA4F50044F6E7034B58686043BDE8384000F0A9BA00BFA6
:40060000D480FF1F024B1B7A584300F0A1BA00BFD480FF1F054A00F01F00126800F1100352F8230042F82310704700BF08ED00E000F01F0000F16040490100F56440C9B250
:4006400001707047024A137843F080031370704774640040034A04491378DB0601D50B88FAE7704764640040A868004010B5164A164C137803F0C00343F00A0313702378EE
:4006800043F00103237092F8213043F0010382F8213044F61F63A2F89433A2F814340C4B4FF4B8621A800022A3F571731A7000F057FA237843F01003237000F055FABDE885
:4006C0001040FFF7C7BF00BF74640040946400404868004010B5054C23781BB9FFF7C6FF01232370BDE81040FFF7ACBF6881FF1F024A137843F080031370704773640040FD
:40070000034A04491378DB0601D50B88FAE7704763640040A468004010B5154A154C13786FF4707103F0C00343F009031370D37F43F00103D377237843F00103237044F621
:400740001F63A2F89133A2F811340B4B4FF4B8621A800B4400221A7000F002FA237843F01003237000F000FABDE81040FFF7C8BF73640040936400404468004010B5054C66
:4007800023781BB9FFF7C8FF01232370BDE81040FFF7AEBF6981FF1F014B1880704700BF4468004038B500F0DBF9204A04461378022543F002031370137C0A2043F00203ED
:4007C000137412F80A3C43F0010302F80A3C937943F00103937102F5AB52137843F003031370134B18221A7013F8012C42F0400203F8012C13F8012C02F0FC0203F8012CE3
:40080000C82203F8062CA3F597530A4A183B1D70137843F008031370FFF7F4FE064B20461D60BDE8384000F09FB900BFAB4300400E5900402F5B004080E200E0082804D07A
:400840000A280CBF8223C22300E0422308380E4AC0B20428137098BF0C4B4FF0000298BF33F910100A4B88BF11461A8042F210734B4341F2883103F6C41393FBF1F3054913
:400880000B60054B1A8070470A590040F02300007C81FF1F7881FF1F7481FF1F08B5102000F05CF807210120FFF7C2FE07490120FFF7B0FE064A0C20137843F00603137026
:4008C000FFF7BCFF034B00221A8008BD59090000095900407E81FF1F10B5054C23781BB9FFF7DCFF01232370BDE81040FFF75ABF6A81FF1F034A044B1B881088181A00B282
:40090000704700BF7481FF1FA25B00400E4A38B513881BB223B114880A2324B25C4301E00A4B1C680A4B1B88C01A00B200F092FB084900F0E3FB0546204600F08BFB0146EA
:40094000284600F08FFC38BD7C81FF1F7881FF1F7E81FF1F0000204170470000034A00F0F800137803431370704700BF02410040014B1870704700BF7264004010B500F09B
:40098000EFF8214A044613780A2043F001031370137C43F00103137412F80A3C43F0020302F80A3C937943F00203937102F5AA521832137843F003031370144B18221A7028
:4009C00013F8012C42F0400203F8012C13F8012C02F0FC0203F8012CC82203F8062CA3F597530222123B1A70094A137843F008031370FFF707FE074B01222046BDE81040D5
:400A00001A6000F0B1B800BFAB43004006590040275B004080E200E0082804D00A280CBF8223C22300E0422308380E4AC0B20428137098BF0C4B4FF0000298BF33F9101038
:400A40000A4B88BF11461A8042F210734B4341F2883103F6C41393FBF1F305490B60054B1A80704702590040FA2300008081FF1F8881FF1F8481FF1F08B5102000F05CF8CA
:400A800007210020FFF7D4FD07490020FFF7C2FD064A0C20137843F006031370FFF7BCFF034B00221A8008BD350B0000015900408281FF1F10B5054C23781BB9FFF7DCFF6B
:400AC00001232370BDE81040FFF758BF6B81FF1F034A044B1B881088181A00B2704700BF8481FF1FA05B00400E4A38B513881BB223B114880A2324B25C4301E00A4B1C682B
:400B00000A4B1B88C01A00B200F0A4FA084900F0F5FA0546204600F09DFA0146284600F0A1FB38BD8081FF1F8881FF1F8281FF1F0000204170470000034A00F0F8001378C6
:400B400003431370704700BF06410040000000000230800803D000BF01380046FCD17047EFF3108072B6704780F31088704700BF81F0004102E000BF83F0004330B54FEA67
:400B800041044FEA430594EA050F08BF90EA020F1FBF54EA000C55EA020C7FEA645C7FEA655C00F0E2804FEA5454D4EB5555B8BF6D420CDD2C4480EA020281EA030382EA5D
:400BC000000083EA010180EA020281EA0303362D88BF30BD11F0004F4FEA01314FF4801C4CEA113102D0404261EB410113F0004F4FEA03334CEA133302D0524263EB4303E5
:400C000094EA050F00F0A780A4F10104D5F1200E0DDB02FA0EFC22FA05F2801841F1000103FA0EF2801843FA05F359410EE0A5F120050EF1200E012A03FA0EFC28BF4CF022
:400C4000020C43FA05F3C01851EBE37101F0004507D54FF0000EDCF1000C7EEB00006EEB0101B1F5801F1BD3B1F5001F0CD349085FEA30004FEA3C0C04F101044FEA4452E2
:400C800012F5800F80F09A80BCF1004F08BF5FEA500C50F1000041EB045141EA050130BD5FEA4C0C404141EB010111F4801FA4F10104E9D191F0000F04BF01460020B1FA1F
:400CC00081F308BF2033A3F10B03B3F120020CDA0C3208DD02F1140CC2F10C0201FA0CF021FA02F10CE002F11402D8BFC2F1200C01FA02F120FA0CFCDCBF41EA0C019040FE
:400D0000E41AA2BF01EB0451294330BD6FEA04041F3C1CDA0C340EDC04F11404C4F1200220FA04F001FA02F340EA030021FA04F345EA030130BDC4F10C04C4F1200220FAE7
:400D400002F001FA04F340EA0300294630BD21FA04F0294630BD94F0000F83F4801306BF81F480110134013D4EE77FEA645C18BF7FEA655C29D094EA050F08BF90EA020F84
:400D800005D054EA000C04BF1946104630BD91EA030F1EBF0021002030BD5FEA545C05D14000494128BF41F0004130BD14F580043CBF01F5801130BD01F0004545F0FE4192
:400DC00041F470014FF0000030BD7FEA645C1ABF194610467FEA655C1CBF0B46024650EA013406BF52EA033591EA030F41F4002130BD00BF90F0000F04BF0021704730B586
:400E00004FF4806404F132044FF000054FF0000150E700BF90F0000F04BF0021704730B54FF4806404F1320410F0004548BF40424FF000013EE700BF42004FEAE2014FEAFC
:400E400031014FEA02701FBF12F07F4393F07F4F81F06051704792F0000F14BF93F07F4F704730B54FF4607401F0004521F0004120E700BF50EA010208BF704730B54FF034
:400E800000050AE050EA010208BF704730B511F0004502D5404261EB41014FF4806404F132045FEA915C3FF4DCAE4FF003025FEADC0C18BF03325FEADC0C18BF033202EB86
:400EC000DC02C2F1200300FA03FC20FA02F001FA03FE40EA0E0021FA02F11444C1E600BF80F0004002E000BF81F0004142001FBF5FEA410392EA030F7FEA226C7FEA236C0C
:400F00006AD04FEA1262D2EB1363C1BFD218414048404140B8BF5B42192B88BF704710F0004F40F4000020F07F4018BF404211F0004F41F4000121F07F4118BF494292EA6D
:400F4000030F3FD0A2F1010241FA03FC10EB0C00C3F1200301FA03F100F0004302D5494260EB4000B0F5000F13D3B0F1807F06D340084FEA310102F10102FE2A51D2B1F1EA
:400F8000004F40EBC25008BF20F0010040EA03007047490040EB000010F4000FA2F10102EDD1B0FA80FCACF1080CB2EB0C0200FA0CF0AABF00EBC25052421843BCBFD040B6
:400FC0001843704792F0000F81F4000106BF80F400000132013BB5E74FEA41037FEA226C18BF7FEA236C21D092EA030F04D092F0000F08BF0846704790EA010F1CBF00201C
:40100000704712F07F4F04D1400028BF40F00040704712F100723CBF00F50000704700F0004343F0FE4040F4000070477FEA226216BF08467FEA23630146420206BF5FEAC3
:40104000412390EA010F40F4800070474FF0000304E000BF10F0004348BF40425FEA000C08BF704743F0964301464FF000001CE050EA010208BF70474FF000030AE000BF5F
:4010800050EA010208BF704711F0004302D5404261EB41015FEA010C02BF84460146002043F0B64308BFA3F18053A3F50003BCFA8CF2083AA3EBC25310DB01FA02FC634469
:4010C00000FA02FCC2F12002BCF1004F20FA02F243EB020008BF20F00100704702F1200201FA02FCC2F1200250EA4C0021FA02F243EB020008BF20EADC7070474FF0FF0C94
:401100001CEAD0521EBF1CEAD15392EA0C0F93EA0C0F6FD01A4480EA010C400218BF5FEA41211ED04FF0006343EA501043EA5111A0FB01310CF00040B1F5000F3EBF4900C9
:4011400041EAD3715B0040EA010062F17F02FD2A1DD8B3F1004F40EBC25008BF20F00100704790F0000F0CF0004C08BF49024CEA502040EA51207F3AC2BFD2F1FF0340EA78
:40118000C250704740F400004FF00003013A5DDC12F1190FDCBF00F000407047C2F10002410021FA02F1C2F1200200FA02FC5FEA310040F1000053EA4C0308BF20EADC70AA
:4011C000704792F0000F00F0004C02BF400010F4000F013AF9D040EA0C0093F0000F01F0004C02BF490011F4000F013BF9D041EA0C018FE70CEAD15392EA0C0F18BF93EA78
:401200000C0F0AD030F0004C18BF31F0004CD8D180EA010000F00040704790F0000F17BF90F0004F084691F0000F91F0004F14D092EA0C0F01D142020FD193EA0C0F03D14F
:401240004B0218BF084608D180EA010000F0004040F0FE4040F40000704740F0FE4040F4400070474FF0FF0C1CEAD0521EBF1CEAD15392EA0C0F93EA0C0F69D0A2EB030223
:4012800080EA010C49024FEA402037D04FF0805343EA111143EA10130CF000408B4238BF5B0042F17D024FF4000C8B4224BF5B1A40EA0C00B3EB510F24BFA3EB510340EA77
:4012C0005C00B3EB910F24BFA3EB910340EA9C00B3EBD10F24BFA3EBD10340EADC001B0118BF5FEA1C1CE0D1FD2A3FF650AF8B4240EBC25008BF20F0010070470CF0004C5F
:401300004CEA50207F32C2BFD2F1FF0340EAC250704740F400004FF00003013A37E792F0000F00F0004C02BF400010F4000F013AF9D040EA0C0093F0000F01F0004C02BFA3
:40134000490011F4000F013BF9D041EA0C0195E70CEAD15392EA0C0F08D142027FF47DAF93EA0C0F7FF470AF084676E793EA0C0F04D14B023FF44CAF08466EE730F0004C1E
:4013800018BF31F0004CCAD130F000427FF45CAF31F000437FF43CAF5FE700BF4FF0FF3C06E000BF4FF0010C02E000BF4FF0010C4DF804CD4FEA40024FEA41037FEA226C4A
:4013C00018BF7FEA236C11D001B052EA530C18BF90EA010F58BFB2EB030088BFC81738BF6FEAE17018BF40F0010070477FEA226C02D15FEA402C05D17FEA236CE4D15FEA08
:40140000412CE1D05DF8040B704700BF844608466146FFE70FB5FFF7C9FF002848BF10F1000F0FBD4DF808EDFFF7F4FF0CBF012000205DF808FB00BF4DF808EDFFF7EAFF23
:4014400034BF012000205DF808FB00BF4DF808EDFFF7E0FF94BF012000205DF808FB00BF4DF808EDFFF7D2FF94BF012000205DF808FB00BF4DF808EDFFF7C8FF34BF0120B0
:4014800000205DF808FB00BF4FEA4002B2F1FE4F0FD34FF09E03B3EB12620DD94FEA002343F0004310F0004F23FA02F018BF404270474FF00000704712F1610F01D1420211
:4014C00005D110F0004008BF6FF0004070474FF000007047014B1868704700BF4481FF1F0E4B70B51E460E4C0025E41AA410A54204D056F8253098470135F8E700F0D0FF7A
:40150000084B094C1E46E41AA4100025A54204D056F8253098470135F8E770BDAC240000AC240000AC240000B424000003460244934202D003F8011BFAE770470FB40A4B04
:4015400013B51C6824B1A36913B9204600F04EF805AB049AA1682046019300F057F902B0BDE8104004B070474481FF1F014900F0A9B800BFF920000010B504460023036048
:401580004360836081814366C281036143618361194608225C30FFF7C9FF054B24626362044BA362044BE362044B236310BD00BF9D1D0000BF1D0000F71D00001B1E000031
:4015C00070B568234D1E5D430E4605F1740100F097F8044640B1002180E842000C30A06005F16802FFF7A2FF204670BD836910B5044633BB8364C3640365124B124A1B688B
:401600008262984204BF0123836100F01FF86060204600F01BF8A060204600F017F80022E06004216068FFF7A7FF01220921A068FFF7A2FF02221221E068FFF79DFF012360
:40164000A36110BD082400006D150000F8B51C4B07461E68B36913B93046FFF7C7FF4836B4687368013B04D4B4F90C507DB16834F8E733680BB13668F2E704213846FFF748
:401680009FFF30600028F6D10C233B60F8BD4FF6FF73E3810123A38165662560A560656025616561A5610822294604F15C00FFF73DFF6563A563A564E5642046F8BD00BFA7
:4016C000082400002DE9F8438046894600F14804002694B1A5686768013F0CD4AB89012B07D9B5F90E30013303D029464046C84706436835F0E72468EBE73046BDE8F8834C
:4017000070B5CD1C25F0030508350C2D38BF0C25002D064601DBA94202D90C23336046E000F094FD234B1C681A462146A1B10B685B1B0ED40B2B03D90B60CC18CD501EE00A
:401740008C420BBF63684B681360636018BF0C4615E00C464968E9E7174C23681BB9304600F00CFB20602946304600F007FB431C18D0C41C24F00304A0420DD125603046A9
:4017800000F065FD04F10B00231D20F00700C31A0ED05A42E25070BD211A304600F0EEFA0130EBD10C233360304600F050FD002070BD00BF7081FF1F6C81FF1F936810B4FA
:4017C000013B002B936008DA9469A34202DBCBB20A2B02D110BC00F025BB1368581C10601970C8B210BC7047F8B506460F461446D518AC4208D03A4614F8011B3046FFF779
:40180000DDFF431CF5D100E00020F8BD2DE9F04F9DB00C4617460393064618B183690BB9FFF7E4FE7F4B9C4201D1746808E07E4B9C4201D1B46803E07C4B9C4208BFF468F0
:40184000A38918070CD5236953B10023099320238DF8293030238DF82A30DFF8D4B144E02146304600F044FB0028EED04FF0FF30D5E0039A111D12680391002A80F28C8084
:40188000524243F002000792049098F800302E2B00F08480032298F80010654800F0C8FC48B14023CBEB000003FA00F0049B08F101081843049098F8001006225D4808F10A
:4018C00001078DF8281000F0B3FC002800F09580594B002B40F08880039B073323F0070308330393099B53440993B846454615F8013B1BB9B8EB07090FD003E0252BF9D07F
:40190000A846F3E74B463A4621463046FFF76CFF01307FD0099B4B44099398F80030002B78D000234FF0FF3204930793059206938DF853301A930127052229783F4800F0FE
:4019400077FC05F10108049B38B13C4A4546801A07FA00F018430490EEE7D90644BF20228DF853201A0744BF2B228DF853202A782A2A3FF47EAF079A00210A20A84698F8C8
:4019800000300135303B092B03D800FB02320121F4E700293FF479AF079276E798F801302A2B0BD1039B08F102081A1D1B680392002BB8BF4FF0FF3305936BE70023194640
:4019C000059308F101000A25804698F800200130303A092A03D805FB01210123F4E7002B3FF458AF059155E703AB00932246144B04A93046AFF3008007E003AB00932246D2
:401A00000F4B04A9304600F093F8B0F1FF3F82467FF468AFA3895B063FF528AF09981DB0BDE8F08F0C2400002C2400004C2400007224000076240000000000006C240000A3
:401A4000E91700002DE9F04791461F460A698B6806469342B8BF1346C9F8003091F843200C46DDF8208012B10133C9F800302368990642BFD9F800300233C9F8003025681B
:401A800015F0060510D104F1190A07E00123524639463046C04701301AD00135E368D9F800209B1A9D42F1DB94F843302268003318BF012392060FD5E118302081F8430059
:401AC0005A1C94F845102244023382F8431003E04FF0FF30BDE8F08704F1430239463046C0470130F4D02268D9F80050E36802F00602042A08BF5D1B2269A3680CBF25EAC2
:401B0000E57500259342C4BF9B1AED184FF000091A344D4509D00123224639463046C0470130D5D009F10109F3E70020BDE8F0872DE9F04317460A7E85B06E2A9846064676
:401B40000C460C9B01F1430E00F0AE8011D8632A22D009D8002A00F0BB80582A40F0CA8081F84520834955E0642A1ED0692A1CD0C0E0732A00F0B08009D86F2A2ED0702A28
:401B800040F0B8800A6842F020020A603EE0752A24D0782A3AD0ADE01A6801F14205111D1960136884F84230A8E021681A6811F0800F02D0111D196008E011F0400F02F111
:401BC0000401196002D0B2F9003000E01368002B3CDA2D225B4284F8432037E021681A6811F0800F02D0111D196007E011F0400F02F10401196001D0138800E01368227E19
:401C00005C496F2A14BF0A2208221BE078225A4984F845202268186812F0800F00F104051D6003D1550601D5038800E00368D00744BF42F0200222601BB9226822F02002F5
:401C400022601022002084F8430001E049490A226568002DA56008DB206820F0040020602BB9002D7DD175460CE0002B79D07546B3FBF2F002FB1033CB5C05F8013D034684
:401C80000028F5D1082A0BD12368DA0708D5236962689A42DEBF302305F8013C05F1FF35C5EB0E0323612EE008681A6810F0800F496903D0101D1860136808E010F0400FA9
:401CC00002F104001860136801D0198000E0196000232361754616E01A68111D1960156800216268284600F0A3FA08B1401B6060636804E004F1420584F84220012323610E
:401D0000002384F84330CDF800803B4603AA21463046FFF797FE013002D14FF0FF3026E023692A4639463046C0470130F5D023689B0710D5002504F1190907E001234A4667
:401D400039463046C0470130E7D00135E368039A9B1A9D42F2DBE068039B9842B8BF184605E00B7804F1420584F842308AE705B0BDE8F0837D2400008E24000038B5064C09
:401D80000023054608462360FEF7B4FB431C02D1236803B12B6038BD8C81FF1F10B50C46B1F90E1000F0A0FA0028ABBF636DA3891B1823F48053ACBF6365A38110BD2DE9D6
:401DC000F0411F468B890546DB050C46164605D502230022B1F90E1000F0B8F9A389324623F48053A381B4F90E103B462846BDE8F04100F06BB810B50C46B1F90E1000F0B2
:401E0000A5F9431CA38915BF606523F4805343F48053A38118BFA38110BDB1F90E1000F0D5B80000F8B50F461446064618B183690BB9FFF7DBFB224B9C4201D1746808E0ED
:401E4000204B9C4201D1B46803E01F4B9C4208BFF468A369A360A3891A0709D523693BB123682069FDB2181A636998420FDB08E02146304600F03CF80028F1D04FF0FF3066
:401E8000F8BD2146304600F037F90028F6D1A368013BA36023685A1C22601F706269431C934204D0A389DB0707D50A2D05D12146304600F021F90028E0D12846F8BD00BFB9
:401EC0000C2400002C2400004C24000038B5074C054608461146002222601A4600F060FA431C02D1236803B12B6038BD8C81FF1F324B70B51D6806460C4625B1AB6913B9DD
:401F00002846FFF773FB2E4B9C4201D16C6808E02C4B9C4201D1AC6803E02B4B9C4208BFEC68B4F90C309AB215071DD4D00602D4092232603AE0510712D5616B41B104F1A6
:401F40004403994202D0304600F082F900236363A38923F02403A3810023636023692360A38943F00803A38123694BB9A38903F42073B3F5007F03D02146304600F01CF974
:401F8000A28912F0010305D00023A36063695B42A36103E0920758BF6369A36023695BB9B4F90C3003F0800080B230B143F04003A3814FF0FF3070BD002070BD4481FF1FB2
:401FC0000C2400002C2400004C24000038B5064C002305460846236000F0BAF9431C02D1236803B12B6038BD8C81FF1F8A892DE9F041054610070C4659D44B68002B02DCBD
:402000000B6C002B17DDE66AAEB102F48052002392B22F682B600AB1606D15E0216A01232846B047411C0FD12B686BB11D2B01D0162B03D12F600020BDE8F081A38943F03B
:402040004003A381BDE8F081A3895A0705D56368C01A636B0BB1236CC01A00230246E66A216A2846B047431CA38906D129681D2939D8204ACA40D60735D500226260226925
:40208000D904226004D5421C01D12B6803B96065616B2F600029CED004F14403994202D0284600F0D5F800206063BDE8F0810F69002FC0D093070E680CBF4B690023C7EBDA
:4020C00006080F608B6002E00744C0EB0808B8F1000FB0DD43463A46216A2846A66AB0470028F1DCA38943F04003A3814FF0FF30BDE8F0810100402038B50B6905460C46A4
:40210000DBB118B183690BB9FFF770FA0C4B9C4201D16C6808E00B4B9C4201D1AC6803E0094B9C4208BFEC68B4F90C302BB121462846BDE83840FFF759BF002038BD00BF94
:402140000C2400002C2400004C24000038B5074C054608461146002222601A4600F010F9431C02D1236803B12B6038BD8C81FF1F70B50E46B1F90E1090B0002914461D46BF
:4021800006DA00232B60B3891A060ED540230EE001AA00F0BBF80028F3DB029A02F47042A2F500535A425A412A604FF480630020236010B070BD00008B8973B59E070546EC
:4021C0000C4610D401AB6A46FFF7D2FF009906462846FFF795FA68B9B4F90C309A0522D443F00203A38104F14703236023610123636118E00D4BAB62A389206043F08003C6
:40220000A381009B20616361019B4BB1B4F90E10284600F08DF818B1A38943F00103A381A0893043A08102B070BD00BF6D15000010B5C9B202449042034605D01C780130EC
:402240008C42F8D1184610BD002010BD7047704738B50546002944D051F8043C0C1F002BB8BFE418FFF7F2FF1E4A1368114613B96360146030E0A3420DD92268A018834274
:4022800001BF18685B681218226063600C6023E0A24203D813465A68002AF9D118681918A1420BD12168014458188242196013D110685268014419605A600DE002D90C23FF
:4022C0002B6009E021686018824201BF106852680918216062605C602846BDE83840FFF7B6BF38BD7081FF1F38B5074C054608461146002222601A4600F04AF8431C02D101
:40230000236803B12B6038BD8C81FF1F38B5074C0023054608461146236000F021F8431C02D1236803B12B6038BD00BF8C81FF1F38B5064C002305460846236000F018F87B
:40234000431C02D1236803B12B6038BD8C81FF1F024B58221A604FF0FF3070478C81FF1F024B58221A604FF0FF3070478C81FF1F024B58221A600020704700BF8C81FF1F1D
:40238000024B58221A604FF0FF3070478C81FF1F024B58221A604FF0FF3070478C81FF1F024B58221A604FF0FF3070478C81FF1F00000000252E32660000510040100020BE
:4023C0005100402000505100402000F0510040100000000140001000140140000800400140000A004C01400002005001402000000001000000040000001000010000000407
:402400000000001043000000E480FF1F00000000000000000000000000000000000000000000000000000000000000000000000000000000000000000000000000000000C7
:402440000000000000000000000000000000000000000000000000000000000000000000000000000000000000000000232D302B2000686C4C0065666745464700303132DA
:402480003334353637383941424344454600303132333435363738396162636465660000F8B500BFF8BC08BC9E4670474D00000071050000F8B500BFF8BC08BC9E467047EA
:4024C00029000000D8240000C880FF1F800000004800000000000000000000000000A0409081FF1F0000E02EC05D00001800000000366E01000000000C2400002C24000012
:402500004C24000000000000000000000000000000000000042400000000000000000000000000000000000000000000000000000000000000000000000000000000000003
:402540000000000000000000000000000000000000000000E480FF1F00000000000000000000000000000000000000000000000000000000000000000000000000000000D9
:40258000000000000000000000000000000000000000000000000000000000000000000000000000000000000000000000000000000000000000000000000000000000001B
:4025C00000000000000000000000000000000000000000000000000000000000000000000000000000000000000000000000000000000000000000000000000000000000DB
:40260000000000000000000000000000000000000000000000000000000000000000000000000000000000000000000000000000000000000000000000000000000000009A
:40264000000000000000000000000000000000000000000000000000000000000000000000000000000000000000000000000000000000000000000000000000000000005A
:020000040003F7
:0200000480007A
:4000000002520040015B004002640040020101404002014023030140410401402205014001070140010D014001150140011B01400D4001400541014007420140034301405C
:4000400003450140034601400148014002490140024C0140014D014003500140015101406008610C2721830D840D8B10E220200134013E104060410549FF4AFF4BFF4DA0E5
:400080004F04501858045A045B045F01604062C06440654066C068C06AC06CC06EC08E0292019A069B01A60CAD01B004B202B401B608B701BE04C020C105C5D1C720C8230D
:4000C000C9FFCAFFCBFFCDAFCE0FCF04D018D280D405D804D904DA04DB04DF01E040E2C0E440E540E6C0E8C0EAC0ECC0EEC0020209020A0410201701184019841A041B1010
:400100001F102240298030204204482049024A024E024F20520259065A806F01710287019720C001C20AC414CA08CC04D004D238D60BEA800301100812021B021E012408BA
:4001400026042D032E07300634013608370338803E104050410149FF4AFF4BFF4DA04F04501852805405580459045A045B045F01604062C06440654066C068C06AC06CC002
:400180006EC08F01B101C010C105C5D1C602C827C9FFCAFFCBFFCDAFCE0FCF04D018D904DA04DF01E040E2C0E440E540E6C0E8C0EAC0ECC0EEC00981102013801880194047
:4001C0001A04224026012780294030203A013F40418047804A014C204D024F8055815601574059025A847340A840C209C405CA08CC04CE11D018D218D60BA840EA80EE0839
:40020000EE0831403680560257086F08720273048B08CC30D440D620DA80DC2087049704A680B140E24051405704A304A680AB04D460EE20A680A940EA80A701B301EA01D0
:400240001B01A701C608A680AE80EE101F80C601AF80000108010A01000F00000F030A05000000000C00000C00000C00000C00000008000000000000000B0B000000000072
:400280000F0000000F0F00000E0018010E001801000000000000000000000000000000000000000000000000000000000000000000000000000000000000000000000000C3
:4002C00000000000000000000000000000000000000000000000000000000000000000000000000000000000000000000000000000000000000000000000000000000000FE
:4003000000000000000000000000000000000000000000000000000000000000000000000000000000000000000000000000000000000000000000000000000000000000BD
:40034000000000000000000000000000000000000000000000000000000000000000000000000000000000000000000000000000000000000000000000000000000000007D
:40038000000000000000000000000000000000000000000000000000000000000000000000000000000000000000000000000000000000000000000000000000000000003D
:0200000490006A
:0400000000034005B4
:0200000490105A
:04000000BC90ACAF55
:0200000490303A
:02000000D3AA81
:0200000490402A
:4000000000000000000000000000000000000000000000000000000000000000000000000000000000000000000000000000000000000000000000000000000000000000C0
:400040000000000000000000000000000000000000000000000000000000000000000000000000000000000000000000000000000000000000000000000000000000000080
:400080000000000000000000000000000000000000000000000000000000000000000000000000000000000000000000000000000000000000000000000000000000000040
:4000C0000000000000000000000000000000000000000000000000000000000000000000000000000000000000000000000000000000000000000000000000000000000000
:0200000490501A
:0C00000000012E12306900012E210413B3
:00000001FF